:020000040000FA
:0600000033EF17F01200BF
:0600080004EF08F01200F5
:060018000CEF08F01200DD
:0610000033EF17F01200AF
:021006001200D6
:061008003FEF11F01200A1
:0610180046EF11F012008A
:02101E000100CF
:0C102000822E0000600000003300000081
:04102C00D9CFE6FF33
:10103000E1CFD9FFE652A0940F015F6B626A536B58
:10104000010EE66EE66AE66A540EE66E0F0EE66E76
:10105000DFEC16F00B6E050EE15E0B50160E616EA6
:101060000F019F0E5B6F7B0E606EDF6ADF500B6EB1
:101070000C6A080E0B5C000E0C5810E2DF50040DD9
:10108000F3CFE9FFF4CFEAFF000EE926020EEA22D1
:10109000EE6AEE6AEE6AEE6ADF2AE8D7648C0F0128
:1010A0005C6B6498649C62A607D062960001A66B94
:1010B000AB6BAC6BAD6BF7D70001010EBD6FBE6FB4
:1010C000BF6BC06BB36BDF6A020EDF5C26E2EA6ABD
:1010D000DF34FE0BEA36E96E9E0EE926000EEA22A8
:1010E000EE6AED6AEA6ADF34FE0BEA36E96E9A0EC2
:1010F000E926000EEA22EE6AED6ADF50EA6AB70FCF
:10110000E96E000EEA22EF6ADF50EA6AB90FE96E73
:10111000000EEA22EF6ADF2AD7D70001080E9E6F81
:10112000020E9F6F0F01160E536F0201200E026F09
:10113000020E036F080E016F840E006F0001946BA6
:10114000936BE552E552E7CFD9FF1200D9CFE6FF06
:10115000E1CFD9FFE6520001935110E1646A606A61
:10116000160E616E0F019F0E5B6F7B0E606E64B694
:1011700002D06486FCD70001010E936F930508E14D
:1011800064BA06D0626A606A60806088020E936FFB
:101190006250040B06E06050040B03E062947DECA7
:1011A0000EF064B252D06250010B08E06050010BA7
:1011B00005E03CDF0001040E936F62906250100B5B
:1011C00006E06050100B03E068EC0EF0629862AC31
:1011D00012D060AC0FD0010EE66EE66A000EE66E2D
:1011E000E66A730EE66EE66A8CEC14F00B6E060E81
:1011F000E15E0B50629C6250200B05E06050200BBA
:1012000002E04EEC0EF06250020B14E06050020B54
:1012100011E0010EE66EE66A000EE66EE66AE6682A
:101220007F0EE66E8CEC14F00B6E060EE15E0B503A
:101230000F015F6B040E0001E76E9319E8AE02D058
:10124000E73402D0E750935D02E2A19439D060A662
:1012500036D0DF6A040EDF5C32E262A630D063CFA4
:10126000B4F00001B451780BE842E842E842B56FAF
:101270006296B4B506D0B551EA6AB90FE96E000EB0
:1012800005D0B551EA6AB70FE96E000EEA22EF7099
:10129000B55103E194EC0EF010D0000EE66EE66A54
:1012A000B40EE66E000EE66E720EE66EE66A8CEC2A
:1012B00014F00B6E060EE15E0B50DF2ACBD7A19423
:1012C000E552E552E7CFD9FF1200D9CFE6FFE1CFD3
:1012D000D9FF020EE126FD0EDBA407D0E66AFE0E62
:1012E000DBCFE6FFF7D9E552E552FD0EDBA208D0D1
:1012F000010EE66EFE0EDBCFE6FFECD9E552E552BD
:10130000FE0EDB500C6A530F0B6E0F0E0C220BC03F
:10131000DEFF0CC0DDFFDECFE9FFDDCFEAFFFD0E13
:10132000DBCFEFFF020EE15C02E2E16AE552E16E23
:10133000E552E7CFD9FF1200D9CFE6FFE1CFD9FFC1
:10134000020EE126FD0EDB500AE0FE0EEA6ADB34F7
:10135000FE0BEA36E96E9E0EE926000E09D0FE0E5F
:10136000EA6ADB34FE0BEA36E96E9A0EE926000ED5
:10137000EA22EECFDEFFEDCFDDFFD9CFE9FFDACFF6
:10138000EAFFEE50ED1003E1F36AF46A44D0DECFD9
:10139000E9FFDDCFEAFF020EE926000EEA22FB0E8E
:1013A000DBCFEEFFFC0EDBCFEDFFDECFE9FFDDCFC5
:1013B000EAFFEE52FA0EDBCFEFFF400EDECFE9FF81
:1013C000DDCFEAFFE850EF16880EDECFE9FFDDCF74
:1013D000EAFFE850EF12FD0EDB500AE0FE0EEA6A6B
:1013E000DB34FE0BEA36E96E9E0EE926000E09D0CC
:1013F000FE0EEA6ADB34FE0BEA36E96E9A0EE92647
:10140000000EEA22EF74DECF0BF0DDCF0CF00BC044
:10141000F3FF0CC0F4FF020EE15C02E2E16AE55268
:10142000E16EE552E7CFD9FF1200D9CFE6FFE1CF59
:10143000D9FF020EE126FE0EDB5020E198C0E9FF45
:1014400099C0EAFFEE52080EEF6E98C0E9FF99C00E
:10145000EAFF020EE926000EEA22200EEE6E020ED0
:10146000ED6E98C0E9FF99C0EAFF8C0EEF6E9EC04A
:10147000E9FF9FC0EAFF840EEF6E3BD0FD0EDB500C
:10148000E8240D6EFE0EDB50040DF3500D24040D08
:10149000F3CF0BF0F4CF0CF0000E0B26020E0C2253
:1014A0000BC0DEFF0CC0DDFF840EDECFE9FFDDCF19
:1014B000EAFFE850EF12FD0EDB50E8240D6EFE0E41
:1014C000DB50040DF3500D24010F040DF3CF0BF08E
:1014D000F4CF0CF0000E0B26020E0C220BC0DEFF28
:1014E0000CC0DDFF840EDECFE9FFDDCFEAFFE85060
:1014F000EF12020EE15C02E2E16AE552E16EE552B2
:10150000E7CFD9FF1200D9CFE6FFE1CFD9FF64A81A
:101510004ED0FE0EEA6ADB34FE0BEA36E96E9E0E12
:10152000E926000EEA22EE50EFCFEAFFE96E400E08
:10153000EE16EE6AEE6AEE6AFE0EEA6ADB34FE0B27
:10154000EA36E96E9E0EE926000EEA22EE50EFCF53
:10155000EAFFE96EEE7CFE0EEA6ADB34FE0BEA3649
:10156000E96E9E0EE926000EEA22EF74400E0B6E25
:10157000FE0EEA6ADB34FE0BEA36E96E9E0EE926C1
:10158000000EEA22EE50EFCFEAFFE96E0B50EF16A5
:10159000FE0EEA6ADB34FE0BEA36E96E9E0EE926A1
:1015A000000EEA22EE50EFCFEAFFE96EEF7CE55243
:1015B000E7CFD9FF12000001BD514DE1010EBD6F13
:1015C000BE5149E1010EBE6F020EA35D0DE19EC04A
:1015D000E9FF9FC0EAFFEE52EF6A9EC0E9FF9FC09D
:1015E000EAFFC80EEF6E1200A30535E1B66B96C098
:1015F000E9FF97C0EAFFEE52080EEF6E96C0E9FFD2
:1016000097C0EAFF020EE926000EEA22200EEE6ED7
:10161000020EED6E96C0E9FF97C0EAFF840EEF6EF2
:10162000010EB66F98C0E9FF99C0EAFFEE52080EAE
:10163000EF6E98C0E9FF99C0EAFF020EE926000E9E
:10164000EA22200EEE6E020EED6E98C0E9FF99C000
:10165000EAFF800EEF6E12000001BF6BC06B020E3E
:10166000A35D18E198C0E9FF99C0EAFFEE52080EA9
:10167000EF6E98C0E9FF99C0EAFF020EE926000E5E
:10168000EA22280EEE6E020EED6E98C0E9FF99C0B8
:10169000EAFF1DD0A7510201265D0001A8510201F9
:1016A000275904E226C2A7F027C2A8F0CAD89EC0D4
:1016B000E9FF9FC0EAFF020EE926000EEA22280E8B
:1016C000EE6E020EED6E9EC0E9FF9FC0EAFFC80EEF
:1016D000EF6E1200D9CFE6FFE1CFD9FF020EE1266F
:1016E000000EDE6E020EDD6EFD0EDB50E8240D6E88
:1016F000FE0EDB50040DF3500D24040DF4CF0CF05E
:10170000D9CFE9FFDACFEAFFF350EE260C50ED22F5
:10171000DECFE9FFDDCFEAFFEF9EFD0EDB500AE1F1
:10172000FE0EEA6ADB34FE0BEA36E96E9A0EE92613
:10173000000E09D0FE0EEA6ADB34FE0BEA36E96ED3
:101740009E0EE926000EEA22DECFEEFFDDCFEDFF92
:10175000DECFE9FFDDCFEAFFEF9CDECFE9FFDDCF93
:10176000EAFF040EE926000EEA22EF8C020EE15C8D
:1017700002E2E16AE552E16EE552E7CFD9FF1200DD
:1017800064980001A6BF2BD0ABAF09D0020EA36FA7
:10179000C05101E161DF0001BE6BBD6B120098C05A
:1017A000E9FF99C0EAFFEE52080EEF6E98C0E9FF1C
:1017B00099C0EAFF020EE926000EEA22200EEE6E24
:1017C000020EED6E98C0E9FF99C0EAFF8C0EEF6E35
:1017D0009EC0E9FF9FC0EAFF840EEF6E1200020177
:1017E00020AF0DD00001010EA36FBF5101E134DF26
:1017F0000001BE6BBD6BBC5123E1DBEF0AF00001C1
:10180000020EA36F98C0E9FF99C0EAFFEE52080EDE
:10181000EF6E98C0E9FF99C0EAFF020EE926000EBC
:10182000EA22200EEE6E020EED6E98C0E9FF99C01E
:10183000EAFF840EEF6EBE6BBD6BBC5101E1BBDEF7
:101840001200D9CFE6FFE1CFD9FFE652080EDF6ED6
:101850000001A75D000EA8590AE2A7C0DFFFA25150
:1018600002E1010E03D0A20502E1020EA26FDF50D9
:101870000C6AE850A75DA76F0C50A859A86F9EC0CE
:10188000E9FF9FC0EAFFEE52DFCFEFFF280EB06FF7
:10189000020EB16FA6B118D0DF502DE0A4C0F6FF44
:1018A000A5C0F7FFA42B000EA5230800F550E66E97
:1018B000B0C0E9FFB1C0EAFFB02B000EB123E55282
:1018C000E750EF6EDF06E8D7DF5015E0A4C0E9FF70
:1018D000A5C0EAFFA42B000EA523EF50E66EB0C012
:1018E000E9FFB1C0EAFFB02B000EB123E552E7508B
:1018F000EF6EDF06E9D7E552E552E7CFD9FF1200D8
:10190000D9CFE6FFE1CFD9FF020EE12696C0E9FF6D
:1019100097C0EAFFEE52EFCFDFFFDFCF0BF00B50A7
:101920000001AC5D000EAD5902E2ACC0DFFFDF503C
:101930000B6E0C6AE850AC5DAC6F0C50AD59AD6FDE
:10194000010EDB6ADF50F36E010EDBCFF4FFF350C4
:10195000F45C16E2010EDB50EA6A280FE96E020E13
:10196000EA22EF50E66EA9C0E9FFAAC0EAFFA92B60
:10197000000EAA23E552E750EF6E010EDB2AE2D7F4
:10198000000ED880AC55000EAD5527E298C0E9FF97
:1019900099C0EAFFEE52080EEF6E98C0E9FF99C0B9
:1019A000EAFF020EE926000EEA22280EEE6E020E73
:1019B000ED6E96C0E9FF97C0EAFFEF50400B06E1DD
:1019C00098C0E9FF99C0EAFFC80E05D098C0E9FFAA
:1019D00099C0EAFF880EEF6E28D098C0E9FF99C041
:1019E000EAFFEE52080EEF6E98C0E9FF99C0EAFFD9
:1019F000020EE926000EEA22200EEE6E020EED6EB9
:101A000098C0E9FF99C0EAFF840EEF6EAE51AF11A6
:101A100007E005D0AFC0FAFF0001AE51F96EFADF62
:101A20000001AB9FBC5101E1C6DD020EE15C02E2A8
:101A3000E16AE552E16EE552E7CFD9FF1200D9CF56
:101A4000E6FFE1CFD9FFE6520001A68F010EE66E58
:101A5000E66AE66A540EE66E0F0EE66EDFEC16F0EE
:101A60000B6E050EE15E0B50200EE66EE66AE66A2E
:101A7000000EE66E020EE66EDFEC16F00B6E050E43
:101A8000E15E0B50648CDF6A020EDF5C10E2DF5017
:101A9000EA6AB70FE96E000EEA22EF6ADF50EA6ADF
:101AA000B90FE96E000EEA22EF6ADF2AEDD7010EC8
:101AB000E66EE66AE66A950EE66E000EE66EDFEC0E
:101AC00016F00B6E050EE15E0B50649C0001080ED3
:101AD0009E6F020E9F6F000E966F020E976F96C05C
:101AE00098F0996F22C294F0945102E1100E12D036
:101AF000010EE66EE66A940EE66E000EE66E010ECC
:101B0000E66EE66A8CEC14F00B6E060EE15E0B508E
:101B10000001200E936FE552E552E7CFD9FF120086
:101B2000800E0201205D58E10001C00EA66F020187
:101B30002351030A2FE0010A09E0030A4BE10001E7
:101B40005A0EA46F2C0EA56F120E3ED02251F66EC7
:101B5000F76AD890F636F736180EF6262D0EF722CD
:101B60000900F5CFA4F00A00F5CFA5F0020E0001A0
:101B7000F76AA425F66EA551F7220800F5CFA7F065
:101B8000030EF76AA425F66EA551F7220800F5CFDB
:101B9000A8F01200030E225D1AE22251F66EF76AD7
:101BA000D890F636F7361A0EF6262D0EF7220900D3
:101BB000F5CFA4F00A00F5CFA5F0A4C0F6FFA5C0AC
:101BC000F7FF0800F5500001A76FA86B1200000195
:101BD000A66B12000001A66B1200D9CFE6FFE1CF81
:101BE000D9FF020EE1260201286B296B20511F0B41
:101BF000020A11E0030A0CE0010A3CE10001A68F91
:101C0000020128810001B20535E10201288332D0AA
:101C10000001A68F2FD00001A68F020124BF0BD098
:101C200024510F0BE96EEA6AD890E936EA369A0E2B
:101C3000E926000E0AD024510F0BE96EEA6AD8900B
:101C4000E936EA369E0EE926000EEA22EECFDEFFE6
:101C5000EDCFDDFFDECFE9FFDDCFEAFFEF50800BF8
:101C600009E0DECFE9FFDDCFEAFFEF50040B02E031
:101C7000010E286F0001A6AF07D0280EA46F020E38
:101C8000A56FA681020EA76F020EE15C02E2E16A77
:101C9000E552E16EE552E7CFD9FF12000F0153A1E3
:101CA00015D096C0E9FF97C0EAFFEF5080080DE11C
:101CB0009EC0E9FF9FC0EAFFEF50840806E196C08E
:101CC000E9FF97C0EAFF8C0EEF6E5391629A120003
:101CD0006084629864820001010EB36F000EE66EAC
:101CE000E66AE66EE66A750EE66EE66A8CEC14F05D
:101CF0000B6E060EE15E0B5012000001B36B000E7E
:101D0000E66EE66AE66EE66A740EE66EE66A8CECED
:101D100014F00B6E060EE15E0B506492609462A4A8
:101D200002D06294FCD71200D9CFE6FFE1CFD9FFF1
:101D3000E652FD0E0001B41553E17E0EB415E840E5
:101D40007F0B040DF3CF96F0F4CF97F0000E96279B
:101D5000020E972396C098F097C099F0987596C098
:101D6000E9FF97C0EAFFEF503C0BE842E8420D085C
:101D700035E1DF6A080EDF5C23E296C0E9FF97C019
:101D8000EAFF020EE926000EEA22EE50EFCFEAFF4C
:101D9000E96EEF50E66EDF50EA6A200FE96E020E40
:101DA000EA22E552E750EF6E96C0E9FF97C0EAFFDE
:101DB000020EE926000EEA22EE2AEF22DF2ADAD707
:101DC00096C0E9FF97C0EAFF020EE926000EEA225C
:101DD000200EEE6E020EED6E0DD807D03AD805D06B
:101DE000FD0EB415040801E159D8E552E552E7CFDC
:101DF000D9FF12000001A26BBC6BBF6BC06BB66B4E
:101E0000A36B9EC0E9FF9FC0EAFFEF9E9E759EC038
:101E1000E9FF9FC0EAFFEF9E9E7598C0E9FF99C059
:101E2000EAFFEF9EA66BA76BA86BAB6BAC6BAD6BC1
:101E30008FD8000EE66EE66AE66EE66A030EE66E80
:101E4000E66A8CEC14F00B6E060EE15E0B50C0EFF0
:101E50000BF0020E0001A35D02E180EF0CF0A36B1A
:101E6000B6511AE198C0E9FF99C0EAFFEE52080E98
:101E7000EF6E98C0E9FF99C0EAFF020EE926000E56
:101E8000EA22200EEE6E020EED6E98C0E9FF99C0B8
:101E9000EAFF8C0EEF6E1200B66B1200D9CFE6FF90
:101EA000E1CFD9FFE6529EC0E9FF9FC0EAFFEF50A5
:101EB000400B01E0010EDF6E00019E75080E935D80
:101EC0000BE122C25CFF0F015C5103E00001100E28
:101ED00002D00001040E936FA30526E19EC0E9FF26
:101EE0009FC0EAFF020EE926000EEA22280EEE6EDF
:101EF000020EED6EA6DC020E0001A25D06E19EC0A0
:101F0000E9FF9FC0EAFF840E0DD0DF5006E19EC0BE
:101F1000E9FF9FC0EAFFC80E05D09EC0E9FF9FC041
:101F2000EAFF880EEF6E0FD0ABAF0CD0AE51AF1101
:101F300007E005D0AFC0FAFF0001AE51F96EFADF3D
:101F40000001AB9FA36BE552E552E7CFD9FF12002A
:101F500002012051600BE842E842E842E842E842D0
:101F6000000901E0120021510C0A50E00B0A3FE089
:101F70000C0A31E0010A22E00B0A1EE0020A1CE012
:101F8000030A18E0080A10E0010A0CE00F0A08E052
:101F9000030A01E012000001A68F080E936F1200E1
:101FA00090EF0DF01FEF0DF00001940EA46F000EE6
:101FB000A56F0CD0EDEF0DF007EF10F024510001EC
:101FC000A46FA56B950EA427000EA523A681010E74
:101FD000A76FA68F12000001A68F02012451EA6AA2
:101FE000950FE96E000EEA2222C2EFFF1200000EEA
:101FF000E66EE66AE66EE66A020EE66EE66A8CEC6D
:1020000014F00B6E060EE15E0B5012001200D9CFD9
:10201000E6FFE1CFD9FF050EE1260201220510E11E
:1020200020511F0B00090CE10001A68F030E0201D5
:10203000215D04E10001010EB26F02D00001B26B1C
:102040000201225101E011D120511F0B020801E0D1
:102050000CD124510F0B000901E107D124510F0BC2
:10206000010801E202D1200E0001935D01E0FDD0E4
:10207000A68F020124BF16D024510F0BE96EEA6A25
:10208000D890E936EA369A0EE926000EEA22EECF1B
:10209000DEFFEDCFDDFF24510F0BEA6AB90FE96EC9
:1020A000000E15D024510F0BE96EEA6AD890E9367C
:1020B000EA369E0EE926000EEA22EECFDEFFEDCFD5
:1020C000DDFF24510F0BEA6AB70FE96E000EEA221A
:1020D000020EEFCFDBFFD950020FE96EDACFEAFF35
:1020E000EF50010B03E1000EDF9401D0DF8424BF29
:1020F0000BD024510F0BE96EEA6AD890E936EA3624
:102100009A0EE926000E0AD024510F0BE96EEA6AF6
:10211000D890E936EA369E0EE926000EEA22DECF96
:10212000EEFFDDCFEDFF030E215D20E1DECFE9FF05
:10213000DDCFEAFFEF50800B11E024BF07D0245120
:102140000F0BEA6AB90FE96E000E06D024510F0B8F
:10215000EA6AB70FE96E000EEA22EF82840EDECF44
:10216000E9FFDDCFEAFFE850EF127FD0DF74DECF6A
:10217000E9FFDDCFEAFFEF50800B1BE0DECFE9FF88
:10218000DDCFEAFFEF9EDECFE9FFDDCFEAFFEF8C88
:10219000020EE66EE66ADECFE6FFDDCFE6FF050E55
:1021A000E66EE66A8CEC14F00B6E060EE15E0B50E8
:1021B00005D0DECFE9FFDDCFEAFFEF8CDF74D95029
:1021C000020FE96EDACFEAFFEF50020B07E1DECF34
:1021D000E9FFDDCFEAFFEF50800B2BE0020124BFC7
:1021E00007D024510F0BEA6AB90FE96E000E06D032
:1021F00024510F0BEA6AB70FE96E000EEA22EF9244
:102200003B0E0B6EDECFE9FFDDCFEAFFE850EF16A5
:10221000020EE66EE66ADECFE6FFDDCFE6FF050ED4
:10222000E66EE66A8CEC14F00B6E060EE15E0B5067
:1022300007D03B0EDECFE9FFDDCFEAFFE850EF1617
:10224000020124510F0B0C6A530F0B6E0F0E0C2260
:10225000030E0BC0DBFF040E0CC0DBFF030EDBCF55
:10226000E9FF040EDBCFEAFFEF90050EE15C02E22E
:0E227000E16AE552E16EE552E7CFD9FF1200B8
:02227E00DACFB5
:10228000E4FFE652E552E5CFDAFF1100D8CFE4FFD4
:10229000E0CFE4FFE46EDACFE4FFE2CFDAFFE9CF8C
:1022A000E4FFEACFE4FFF6CFE4FFF7CFE4FFF5CF9A
:1022B000E4FFF3CFE4FFF4CFE4FFFACFE4FF00EE56
:1022C00000F00B0EE80403E3EECFE4FFFBD700EED3
:1022D0000BF0030EE80403E3EECFE4FFFBD7E65276
:1022E000D9CFE6FFE1CFD9FFE652DF6AF2A40BD0E7
:1022F000F294200EE66ED10EE66E07EC17F0E55272
:10230000E5520001742BE552E552E7CFD9FFE552C3
:1023100000EE0DF0030EE80403E3E5CFEDFFFBD77D
:1023200000EE0AF00B0EE80403E3E5CFEDFFFBD768
:10233000E5CFFAFFE5CFF4FFE5CFF3FFE5CFF5FFFB
:10234000E5CFF7FFE5CFF6FFE5CFEAFFE5CFE9FF01
:10235000E5CFDAFFE550E5CFE0FFE5CFD8FF10008D
:1023600004D8A6EC08F03AD8FCD70F0EC11202D858
:1023700016EF08F0D9CFE6FFE1CFD9FF0A0EE1262C
:10238000010EF36E020EF3CFDBFF030EDB6A040EC9
:10239000DB6A050EDB6A060EDB6A070EDB6A080ED7
:1023A000DB6A090EDB6A896A8A6A8B6A926A936AB7
:1023B000946A7E6A7F6AF18E0001666B676B686B58
:1023C000696BD08EF28CF28E0A0EE15C02E2E16A59
:1023D000E552E16EE552E7CFD9FF1200D9CFE6FF13
:1023E000E1CFD9FF030EE126020EDB6A0001732B59
:1023F000DF6A090EDF5C01E380D0DF50080A70E07D
:102400000F0A62E0010A54E0030A46E0010A38E0DC
:10241000070A2AE0010A1CE0030A0EE0010A6BE148
:10242000DF50EA6A6A0FE96E000EEA22EF0402E169
:10243000828A61D0829A5FD0DF50EA6A6A0FE96EC1
:10244000000EEA22EF0402E1828855D0829853D030
:10245000DF50EA6A6A0FE96E000EEA22EF0402E139
:10246000828649D0829647D0DF50EA6A6A0FE96EC9
:10247000000EEA22EF0402E1828C3DD0829C3BD028
:10248000DF50EA6A6A0FE96E000EEA22EF0402E109
:10249000828E31D0829E2FD0DF50EA6A6A0FE96EB9
:1024A000000EEA22EF0402E1818E25D0819E23D026
:1024B000DF50EA6A6A0FE96E000EEA22EF0402E1D9
:1024C000818C19D0819C17D0DF50EA6A6A0FE96EBF
:1024D000000EEA22EF0402E1818A0DD0819A0BD02E
:1024E000DF50EA6A6A0FE96E000EEA22EF0402E1A9
:1024F000818801D08198DF2A7CD7200E0001E76E09
:102500009319E8AE02D0E73402D0E750935D01E2C0
:10251000DBD16450020B01E0D7D100016651671195
:1025200002E1000E08D066C0E9FF67C0EAFFEF5085
:10253000800B01E0010E000901E0C6D10201395112
:10254000420A01E189D1030A01E153D1010A01E103
:102550001DD1730A01E1F4D0010A01E19BD0030A05
:102560005DE0670A01E09DD1560E796F600EE66E60
:10257000000EE66EF9EC16F0E552E552010EF3CFCF
:10258000DBFF0B6ADB50E76E0B18E8AE02D0E734D6
:1025900002D0E7500B5C2EE2010EDBCF0CF03E0EBA
:1025A000E76E0C18E8AE02D00C3403D0E750D880A8
:1025B0000C5420E3DF6A010EDB50DF5C13E2DF50D6
:1025C000EA6A600FE96E000EEA22EF50E66EDF283D
:1025D000EA6A790FE96E020EEA22E552E750EF6EE1
:1025E000DF2AE9D7DF28EA6A790FE96E020EEA22CC
:1025F000EF6A02D002017A6B00016851691102E1B1
:10260000000E08D068C0E9FF69C0EAFFEF50800BF8
:1026100001E0010E000901E044D130D1310E796FA3
:10262000090E7A6FDF6A090EDF5C0AE2020EDF2410
:10263000EA6A790FE96E020EEA22EF6ADF2AF3D71F
:10264000DF6A090EDF5C14E2DF50EA6A6A0FE96EA6
:10265000000EEA22EF50E66E020EDF24EA6A790FDE
:10266000E96E020EEA22E552E750EF6EDF2AE9D763
:1026700000016851691102E1000E08D068C0E9FF4D
:1026800069C0EAFFEF50800B01E0010E000901E094
:1026900008D1F4D0320E796F020EDB6A090E3A5D72
:1026A00002E0020EDB2ADF6A090EDF5C17E2020E8F
:1026B000DF24EA6A390FE96E020EEA22EF500CE0DD
:1026C000020EDF24EA6A390FE96E020EEA22EF04F5
:1026D00003E0020EDB2A02D0DF2AE6D7020EDB502F
:1026E0001BE1DF6A090EDF5C14E2020EDF24EA6AF6
:1026F000390FE96E020EEA22EF50E66EDF50EA6A09
:102700006A0FE96E000EEA22E552E750EF6EDF2A0B
:10271000E9D702017A6B02D002017A69000168519F
:10272000691102E1000E08D068C0E9FF69C0EAFF44
:10273000EF50800B01E0010E000901E0B2D09ED005
:10274000330E796F090E3A5D0EE23B5102E03B0514
:102750000AE13A51EA6A6A0FE96E000EEA223BC2C8
:10276000EFFF7A6B01D07A6900016851691102E1CB
:10277000000E08D068C0E9FF69C0EAFFEF50800B87
:1027800001E0010E000901E08CD078D0400E796F95
:1027900073C07AF274C07BF275C07CF276C07DF2B1
:1027A00077C07EF278C07FF279C080F27AC081F281
:1027B0007BC082F27CC083F27DC084F27EC085F251
:1027C0007FC086F280C087F281C088F282C089F221
:1027D00000016851691102E1000E08D068C0E9FFEC
:1027E00069C0EAFFEF50800B01E0010E000959E1DA
:1027F00045D0410E796F83C07AF284C07BF285C0E8
:102800007CF286C07DF287C07EF288C07FF289C0EC
:1028100080F28AC081F28BC082F28CC083F28DC0BC
:1028200084F28EC085F28FC086F290C087F291C08C
:1028300088F292C089F200016851691102E1000E2C
:1028400008D068C0E9FF69C0EAFFEF50800B01E0E3
:10285000010E000926E112D0420E796F0001685185
:10286000691102E1000E08D068C0E9FF69C0EAFF03
:10287000EF50800B01E0010E000913E1400EE66EFF
:10288000790EE66E020EE66E010EE66EE66E9CECCA
:1028900009F00B6E050EE15E0B50F3CF68F0F4CF3C
:1028A00069F0400EE66E390EE66E020EE66EE66ADE
:1028B000010EE66E9CEC09F00B6E050EE15E0B500E
:1028C000F3CF66F0F4CF67F0030EE15C02E2E16A59
:1028D000E552E16EE552E7CFD9FF12001200120077
:1028E00012001200C9EF15F012001E0EE66E010E66
:1028F000E66E65EC09F0E552E552120064840001D1
:10290000080ECD6F070ECE6FCD07000ECE5BCD51FA
:10291000CE11FAE164941200D9CFE6FFE1CFD9FFDE
:10292000FD0EDBCF06F0FE0EDBCF07F0720E0618B1
:1029300001E1075033E0E868061802E17F0E07184E
:102940002BE0740E061801E1075024E0750E0618FE
:1029500001E107501DE0730E061801E1075016E073
:10296000030E061801E107500FE0020E061801E100
:10297000075008E0010E061801E1075001E010D0F1
:10298000B4DF0FD0B1DF0DD0ADDF0BD0A9DF09D0A0
:10299000A5DF07D0A4DF05D0A4DF03D0000001D05D
:0E29A00000D0010E00D0E552E7CFD9FF1200A3
:0229AE00D9CF7F
:1029B000E6FFE1CFD9FFFD0EDB50A96EA66AA68027
:1029C000A850E552E7CFD9FF1200D9CFE6FFE1CFFB
:1029D000D9FFE652DF6AA6B20ED0FD0EDB50A96E1B
:1029E000FC0EDB50A86E040EA66E550EA76EAA0E46
:1029F000A76EA68202D0010EDF6EA6B2FED7DF5010
:102A0000E552E552E7CFD9FF1200D9CFE6FFE1CF7B
:102A1000D9FF050EE126010EDF6EDB6AF90EDBCF72
:102A2000E9FFFA0EDBCFEAFFEF6A020EDB6AFC0E6B
:102A3000DB50F36E020EDBCFF4FFF350F45C5EE28A
:102A4000010EDB6A020EDB50E76EFD0EDBCF0BF0F2
:102A5000FE0EDBCF0CF0E7500B26000E0C220BC055
:102A6000E6FF0CC0E6FFA3DFE552E552E76E040E79
:102A7000E7CFDBFF020EDB28E76E030EE7CFDBFFBD
:102A8000FC0EDB50F36E030EDBCFF4FFF350F45C6F
:102A90001EE2030EDB50E76EFD0EDBCF0BF0FE0EE9
:102AA000DBCF0CF0E7500B26000E0C220BC0E6FF2C
:102AB0000CC0E6FF7CDFE552E552F36E040EDB50FE
:102AC000F35C02E1010EDB2A030EDB2AD9D7FB0EF1
:102AD000DB04F36E010EDBCFF4FFF350F45C0BE389
:102AE000F90EDBCFE9FFFA0EDBCFEAFF040EDBCFF6
:102AF000EFFFDF6A03D0020EDB2A99D7DF500B6E9F
:102B0000050EE15C02E2E16AE552E16E0B50E5522E
:102B1000E7CFD9FF1200D9CFE6FFE1CFD9FF020EF0
:102B2000E126DF6A010EDB6AFB0EDB50F36E010E5D
:102B3000DBCFF4FFF350F45C1FE2FC0EDBCFE6FFCB
:102B4000010EDB50E76EFD0EDBCF0BF0FE0EDBCF90
:102B50000CF0E7500B26000E0C220BC0E6FF0CC059
:102B6000E6FF33DFE552E552E552000902E0010ECF
:102B7000DF6E010EDB2AD8D7DF500B6E020EE15C50
:102B800002E2E16AE552E16E0B50E552E7CFD9FF70
:022B9000120031
:0E2B9200020120511F0B010801E01200245126
:102BA00001E01200060E215D1EE12351230A1BE005
:102BB000010A0CE0030A17E10001940514E1000189
:102BC0007E0EA46F2C0EA56F090E09D0000194058E
:102BD0000AE10001950EA46F2C0EA56F1D0EA76FC4
:102BE000A86BC00EA66F02012051600BE842E842BC
:102BF000E842E842E842010801E0120021510B0AD4
:102C000026E0080A19E0090A11E0080A05E00B0AA3
:102C100023E0080A21E012000001CB0EA46F000E91
:102C2000A56F010EA76FA86BC10E0FD00001800E1B
:102C3000A66F23C2CBF012000001CC0EA46F000ED1
:102C4000A56F010EA76FA86B810EA66F1200000181
:0A2C5000800EA66F22C2CCF0120025
:062C5A001201000200005F
:102C60000008EA2286000100010200010902290091
:102C7000010100E032090400000203000000092104
:102C800011010001221D0007058103400001070515
:102C900001034000010600FF0901A10119012940BB
:102CA000150026FF00750895408100190129409103
:102CB00000C00403090426034200690074002000D8
:102CC0005400720061006400650020004F006E0037
:102CD000650020004C00540044002E003C035500C9
:102CE000530042002000520045004C0041005900B2
:102CF000200043004F004E00540052004F004C0093
:102D00004C004500520020003900520065006C0064
:102D100061007900200034006C2CB22CB62CDC2C25
:102D20001E0EF66E100EF76E000EF86E0001090012
:102D3000F550C66F0900F550C76F03E1C66701D0B3
:102D40003DD00900F550C16F0900F550C26F090070
:102D5000F550C36F09000900F550E96E0900F55000
:102D6000EA6E090009000900F550C46F0900F5502A
:102D7000C56F09000900F6CFC8F0F7CFC9F0F8CF4A
:102D8000CAF0C1C0F6FFC2C0F7FFC3C0F8FF000120
:102D9000C45302E1C55307E00900F550EE6EC407C5
:102DA000F8E2C507F9D7C8C0F6FFC9C0F7FFCAC027
:0E2DB000F8FF0001C607000EC75BBFD7120078
:022DBE00FE0E07
:102DC000E3CFE9FFFF0EE3CFEAFFE9CFF3FFEACF5E
:102DD000F4FFFB0EE35003E1FC0EE35009E0FB0EB1
:102DE000E30602E2FC0EE306FD0EE350EE6EF1D7C1
:102DF0001200FE0EE3CFE9FFFF0EE3CFEAFFF36A16
:0E2E0000F46AEE5203E0F34AF42AFBD7120004
:022E0E00D9CF1A
:102E1000E6FFDACFE6FFE1CFD9FFE2CFDAFFE652F5
:102E2000E652FC0EDBCFDEFFDBCFDDFF010EDB5019
:102E3000D76EDF50D66EE552E552E552E5CFDAFFA8
:062E4000E7CFD9FF1200EC
:0A2E4600000EF36E00EE00F0030E24
:102E500001D81200EA6002D0EE6AFCD7F350E960B4
:062E60001200EE6AFCD72F
:0A2E660011EE00F021EE00F0F86A12
:102E70000A9C90EC16F003EC08F0B0EC11F0FBD7D4
:022E800012003E
:0E2E8200312E302E3000000000000000000055
:102E90000000000000000000000000000000000032
:102EA0000000000000000000000000000000000022
:052EB00000000000001D
:020000040030CA
:0100000000FF
:0100010032CC
:0100020021DC
:010003001EDE
:0100050000FA
:010006008178
:0100080003F4
:01000900C036
:01000A0003F2
:01000B00E014
:01000C0003F0
:01000D0040B2
:00000001FF
